:0F0000007589017AFEE59031DE31DE31DE31DEC9
:0F000F00B40106900FFF0201C8B402069010085A
:0F001E000201C8B403069010110201C8B4040611
:0F002D0090101A0201C8B405069010230201C8F2
:0F003C00B4060690102C0201C8B40706901035C8
:0F004B000201C8B4080690103E0201C8B40906AD
:0F005A009010470201C8B40A069010500201C866
:0F006900B40B069010590201C8B40C0690106237
:0F0078000201C8B40D0690106B0201C8B40E0649
:0F0087009010740201C8B40F0690107D0201C8DA
:0F009600B410069010860201C8B4110690108FA6
:0F00A5000201C8B412069010980201C8B41306E5
:0F00B4009010A10201C8B414069010AA0201C84E
:0F00C300B415069010B30201C8B416069010BC15
:0F00D2000201C8B417069010C50201C8B4180681
:0F00E1009010CE0201C8B41A069010D70201C8C1
:0F00F000B41B069010E00201C8B41C069010E982
:0F00FF000201C8B41D069010F20201C8B41E061B
:0F010E009010FB0201C8B41F069011040201C833
:0F011D00B4200690110D0201C8B42106901116EE
:0F012C000201C8B4220690111F0201C8B42306B5
:0F013B009011280201C8B424069011310201C8A6
:10014A00B4250590113A8076B42605901143806E45
:10015A00B4270590114C8066B42805901155805E2D
:10016A00B4290590115E8056B42A05901167804E15
:10017A00B42B059011708046B42C05901179803EFD
:10018A00B42D059011828036B42E0590118B802EE5
:10019A00B42F059011948026B4300590119D801ECD
:1001AA00B431059011A68016B432059011AF800EB5
:1001BA00B433059011B88006B400299011C17B5060
:0F01CA007C08EAF5B023FAEC93F5A031DEDCF304
:1001D900DBEF020005758CFF758A00D28C308DFD2E
:0801E900C28CC28D2202000548
:100FFF000007050740C04040E000070507E020E07C
:10100F0080E000070507E020E020E000070507A0CB
:10101F00A0E0202000070507E080E020E0000705A2
:10102F0007E080E0A0E000070507E0202020200077
:10103F00070507E0A0E0A0E000070507E0A0E0201B
:10104F00E0000705075CD454545C0007050748D837
:10105F00484848000705075CC45C505C000705075B
:10106F005CC45C445C0007050754D45C444400072F
:10107F0005075CD05C445C000705075CD05C545CE2
:10108F00000705075CC4444444000705075CD45CB3
:10109F00545C000705075CD45C445C00070507EE51
:1010AF002AEA8AEE00070507E42CE484E40007052A
:1010BF0007EE22EE88EE00070507EE22EE82EE0025
:1010CF00070507EA2AEE82E200070507EE28EE82FF
:1010DF00EE00070507EE28EE8AEE00070507EE2261
:1010EF00E282E200070507EE2AEE8AEE0007050707
:1010FF00EE2AEE82EE00070507EE2AEA2AEE000737
:10110F000507E42CE424E400070507EE22EE28EEA1
:10111F0000070507EE22EE22EE00070507EA2AEE8A
:10112F0022E200070507EE28EE22EE00070507EE84
:10113F0028EE2AEE00070507EE22E222E20007055D
:10114F0007EE2AEE2AEE00070507EE2AEE22EE0042
:10115F00070507AEAAEA2A2E00070507A4ACE42468
:10116F002400070507AEA2EE282E00070507AEA242
:10117F00EE222E00070507AAAAEE22220007050776
:10118F00AEA8EE222E00070507AEA8EE2A2E000706
:10119F000507AEA2E2222200070507AEAAEE2A2E0D
:1011AF0000070507AEAAEE222E00070507EE8AEA12
:0B11BF002AEE000705076E8A6A0AEEA0
:00000001FF
