:100000007589017AFEE590B401069000FF0200CFE9
:0F001000B402069001080200CFB403069001115C
:0F001F000200CFB4040690011A0200CFB4050608
:0F002E009001230200CFB4060690012C0200CFF0
:0F003D00B407069001350200CFB4080690013ECB
:0F004C000200CFB409069001470200CFB40A06A4
:0F005B009001500200CFB40B069001590200CF64
:0F006A00B40C069001620200CFB40D0690016B3A
:090079000200CFB40E8690017460
:0F00CF007BFA7C08EAF5B023FAEC93F5A011E573
:0F00DE00DCF3DBEF020005758CFF758A00D28C16
:0800ED00308DFDC28CC28D2292
:1000FF000007050740C04040E000070507E020E08B
:10010F0080E000070507E020E020E000070507A0DA
:10011F00A0E0202000070507E080E020E0000705B1
:10012F0007E080E0A0E000070507E0202020200086
:10013F00070507E0A0E0A0E000070507E0A0E0202A
:10014F00E0000705075CD454545C0007050748D846
:10015F00484848000705075CC45C505C000705076A
:10016F005CC45C445C0007050754D45C444400073E
:10017F0005075CD05C445C000705075CD05C545CF1
:10018F00000705075CC4444444000705075CD45CC2
:10019F00545C000705075CD45C445C00070507EE60
:0401AF002AEA8AEEC0
:00000001FF
